{
  "address": "0x2f1a46fB128F76a1196d4d60ea6665403901cf9E",
  "abi": [
    {
      "inputs": [
        {
          "internalType": "contract IUnlockV12",
          "name": "_unlockContract",
          "type": "address"
        }
      ],
      "stateMutability": "nonpayable",
      "type": "constructor"
    },
    {
      "anonymous": false,
      "inputs": [
        {
          "indexed": true,
          "internalType": "address",
          "name": "previousOwner",
          "type": "address"
        },
        {
          "indexed": true,
          "internalType": "address",
          "name": "newOwner",
          "type": "address"
        }
      ],
      "name": "OwnershipTransferred",
      "type": "event"
    },
    {
      "anonymous": false,
      "inputs": [
        {
          "indexed": false,
          "internalType": "string",
          "name": "agentName",
          "type": "string"
        },
        {
          "indexed": false,
          "internalType": "string",
          "name": "baseTokenURI",
          "type": "string"
        },
        {
          "indexed": false,
          "internalType": "uint32",
          "name": "agentID",
          "type": "uint32"
        },
        {
          "indexed": false,
          "internalType": "address",
          "name": "creator",
          "type": "address"
        },
        {
          "indexed": false,
          "internalType": "address",
          "name": "unlockSubscriptionContract",
          "type": "address"
        },
        {
          "indexed": false,
          "internalType": "uint256",
          "name": "keyPrice",
          "type": "uint256"
        },
        {
          "indexed": false,
          "internalType": "uint256",
          "name": "basisPoint",
          "type": "uint256"
        },
        {
          "indexed": false,
          "internalType": "string",
          "name": "rewardCategory",
          "type": "string"
        },
        {
          "indexed": false,
          "internalType": "string",
          "name": "actualCategory",
          "type": "string"
        },
        {
          "indexed": false,
          "internalType": "bool",
          "name": "isOpenForContributions",
          "type": "bool"
        }
      ],
      "name": "agentRegistered",
      "type": "event"
    },
    {
      "anonymous": false,
      "inputs": [
        {
          "indexed": false,
          "internalType": "uint32",
          "name": "agentID",
          "type": "uint32"
        },
        {
          "indexed": false,
          "internalType": "uint256",
          "name": "tokenId",
          "type": "uint256"
        },
        {
          "indexed": false,
          "internalType": "string",
          "name": "threadID",
          "type": "string"
        },
        {
          "indexed": false,
          "internalType": "address",
          "name": "agentCreator",
          "type": "address"
        },
        {
          "indexed": false,
          "internalType": "address",
          "name": "subscriber",
          "type": "address"
        }
      ],
      "name": "agentSubscriptionPurchased",
      "type": "event"
    },
    {
      "anonymous": false,
      "inputs": [
        {
          "indexed": false,
          "internalType": "uint32",
          "name": "agentID",
          "type": "uint32"
        },
        {
          "indexed": false,
          "internalType": "string",
          "name": "agentVersionName",
          "type": "string"
        },
        {
          "indexed": false,
          "internalType": "uint32",
          "name": "agentVersionID",
          "type": "uint32"
        },
        {
          "indexed": false,
          "internalType": "address",
          "name": "creator",
          "type": "address"
        },
        {
          "indexed": false,
          "internalType": "string",
          "name": "agentMetadataCID",
          "type": "string"
        }
      ],
      "name": "agentVersionRegistered",
      "type": "event"
    },
    {
      "inputs": [
        {
          "internalType": "uint32",
          "name": "",
          "type": "uint32"
        }
      ],
      "name": "agentVersions",
      "outputs": [
        {
          "internalType": "uint32",
          "name": "",
          "type": "uint32"
        }
      ],
      "stateMutability": "view",
      "type": "function"
    },
    {
      "inputs": [
        {
          "internalType": "uint32",
          "name": "",
          "type": "uint32"
        }
      ],
      "name": "agents",
      "outputs": [
        {
          "internalType": "address",
          "name": "creator",
          "type": "address"
        },
        {
          "internalType": "address",
          "name": "lockAddress",
          "type": "address"
        },
        {
          "internalType": "bool",
          "name": "isOpenForContributions",
          "type": "bool"
        }
      ],
      "stateMutability": "view",
      "type": "function"
    },
    {
      "inputs": [
        {
          "internalType": "uint256",
          "name": "_value",
          "type": "uint256"
        },
        {
          "internalType": "uint256",
          "name": "_tokenId",
          "type": "uint256"
        },
        {
          "internalType": "uint32",
          "name": "_agentID",
          "type": "uint32"
        }
      ],
      "name": "extendSubscription",
      "outputs": [],
      "stateMutability": "payable",
      "type": "function"
    },
    {
      "inputs": [
        {
          "internalType": "address",
          "name": "",
          "type": "address"
        },
        {
          "internalType": "address",
          "name": "",
          "type": "address"
        },
        {
          "internalType": "address",
          "name": "",
          "type": "address"
        },
        {
          "internalType": "bytes",
          "name": "",
          "type": "bytes"
        }
      ],
      "name": "keyPurchasePrice",
      "outputs": [
        {
          "internalType": "uint256",
          "name": "minKeyPrice",
          "type": "uint256"
        }
      ],
      "stateMutability": "view",
      "type": "function"
    },
    {
      "inputs": [
        {
          "internalType": "uint256",
          "name": "",
          "type": "uint256"
        },
        {
          "internalType": "address",
          "name": "from",
          "type": "address"
        },
        {
          "internalType": "address",
          "name": "",
          "type": "address"
        },
        {
          "internalType": "address",
          "name": "",
          "type": "address"
        },
        {
          "internalType": "bytes",
          "name": "",
          "type": "bytes"
        },
        {
          "internalType": "uint256",
          "name": "",
          "type": "uint256"
        },
        {
          "internalType": "uint256",
          "name": "",
          "type": "uint256"
        }
      ],
      "name": "onKeyPurchase",
      "outputs": [],
      "stateMutability": "view",
      "type": "function"
    },
    {
      "inputs": [],
      "name": "owner",
      "outputs": [
        {
          "internalType": "address",
          "name": "",
          "type": "address"
        }
      ],
      "stateMutability": "view",
      "type": "function"
    },
    {
      "inputs": [
        {
          "internalType": "uint32",
          "name": "_agentID",
          "type": "uint32"
        },
        {
          "internalType": "uint256",
          "name": "_value",
          "type": "uint256"
        },
        {
          "internalType": "string",
          "name": "_threadID",
          "type": "string"
        }
      ],
      "name": "purchaseSubscription",
      "outputs": [],
      "stateMutability": "payable",
      "type": "function"
    },
    {
      "inputs": [
        {
          "components": [
            {
              "internalType": "string",
              "name": "agentName",
              "type": "string"
            },
            {
              "internalType": "uint32",
              "name": "agentID",
              "type": "uint32"
            },
            {
              "internalType": "uint256",
              "name": "subscriptionExpirationDuration",
              "type": "uint256"
            },
            {
              "internalType": "address",
              "name": "tokenAddress",
              "type": "address"
            },
            {
              "internalType": "uint256",
              "name": "keyPrice",
              "type": "uint256"
            },
            {
              "internalType": "uint256",
              "name": "basisPoint",
              "type": "uint256"
            },
            {
              "internalType": "string",
              "name": "lockName",
              "type": "string"
            },
            {
              "internalType": "string",
              "name": "lockSymbol",
              "type": "string"
            },
            {
              "internalType": "string",
              "name": "baseTokenURI",
              "type": "string"
            },
            {
              "internalType": "string",
              "name": "rewardCategory",
              "type": "string"
            },
            {
              "internalType": "string",
              "name": "actualCategory",
              "type": "string"
            },
            {
              "internalType": "bool",
              "name": "isOpenForContributions",
              "type": "bool"
            }
          ],
          "internalType": "struct ChainAgents.AgentInitConfig",
          "name": "agentConfig",
          "type": "tuple"
        }
      ],
      "name": "registerAgent",
      "outputs": [],
      "stateMutability": "nonpayable",
      "type": "function"
    },
    {
      "inputs": [
        {
          "internalType": "uint32",
          "name": "_agentID",
          "type": "uint32"
        },
        {
          "internalType": "uint32",
          "name": "_agentVersionID",
          "type": "uint32"
        },
        {
          "internalType": "string",
          "name": "_agentVersionName",
          "type": "string"
        },
        {
          "internalType": "string",
          "name": "_agentMetadataCID",
          "type": "string"
        }
      ],
      "name": "registerAgentVersion",
      "outputs": [],
      "stateMutability": "nonpayable",
      "type": "function"
    },
    {
      "inputs": [],
      "name": "renounceOwnership",
      "outputs": [],
      "stateMutability": "nonpayable",
      "type": "function"
    },
    {
      "inputs": [
        {
          "internalType": "address",
          "name": "newOwner",
          "type": "address"
        }
      ],
      "name": "transferOwnership",
      "outputs": [],
      "stateMutability": "nonpayable",
      "type": "function"
    },
    {
      "inputs": [
        {
          "internalType": "address",
          "name": "tokenAddress",
          "type": "address"
        }
      ],
      "name": "withdraw",
      "outputs": [],
      "stateMutability": "nonpayable",
      "type": "function"
    },
    {
      "inputs": [
        {
          "internalType": "uint32",
          "name": "_agentID",
          "type": "uint32"
        }
      ],
      "name": "withdraw",
      "outputs": [],
      "stateMutability": "nonpayable",
      "type": "function"
    },
    {
      "stateMutability": "payable",
      "type": "receive"
    }
  ],
  "transactionHash": "0x7a020c56b2b4bbd9cab1369c7a85bbf2daf263bd16b1eb48a87a472e053f9697",
  "args": [
    "0x36b34e10295cCE69B652eEB5a8046041074515Da"
  ],
  "numDeployments": 1,
  "solcInputHash": "06bffe58c0679f8a967c84c3845497b1",
  "bytecode": "0x6080346100b457601f611ae838819003918201601f19168301916001600160401b038311848410176100b9578084926020946040528339810103126100b457516001600160a01b0390818116908190036100b45760005460018060a01b0319903382821617600055604051933391167f8be0079c531659141344cd1fd0a4f28419497f9722a3daafe3b4186f6b6457e0600080a36000196002556228de806003556001541617600155611a1890816100d08239f35b600080fd5b634e487b7160e01b600052604160045260246000fdfe608080604052600436101561001d575b50361561001b57600080fd5b005b600090813560e01c908163221c1fd1146112ee5750806351cff8d914611225578063584992de146111ed5780635e895f291461118b57806362e16bd314610f9e578063715018a614610f4457806381bb425014610b595780638da5cb5b14610b32578063a9cf7519146108ec578063aa9224cd1461072f578063ba30621e146106d5578063e9239117146101825763f2fde38b0361000f573461017f57602036600319011261017f576100ce61139e565b6100d6611507565b6001600160a01b0390811690811561012b57600054826bffffffffffffffffffffffff60a01b821617600055167f8be0079c531659141344cd1fd0a4f28419497f9722a3daafe3b4186f6b6457e0600080a380f35b60405162461bcd60e51b815260206004820152602660248201527f4f776e61626c653a206e6577206f776e657220697320746865207a65726f206160448201526564647265737360d01b6064820152608490fd5b80fd5b503461017f57602036600319011261017f576001600160401b036004351161017f576101806004353603600319011261017f5763ffffffff6101c860246004350161155f565b168152600460205260408120546101e8906001600160a01b031615611570565b6001546003546001600160a01b0391821691600435606401359190821682036106d15761027592602092856002549361022b60c4600435016004356004016115b3565b97906040519889978896879563216c908360e11b8752600487015260018060a01b03166024860152608460043501356044860152606485015260c0608485015260c4840191611604565b8260a483015203925af19081156105fe5782916106a2575b50816102a360c4600435016004356004016115b3565b906102b860e4600435016004356004016115b3565b9190926102d0610104600435016004356004016115b3565b94906001600160a01b0388163b1561069e5761031295610324610336938997604051998a98899863d1b8759b60e01b8a52606060048b015260648a0191611604565b87810360031901602489015291611604565b84810360031901604486015291611604565b0381836001600160a01b0388165af180156105fe5761068a575b505060a46004350135610621575b6001600160a01b0381163b156105fa57816040516374cac47d60e01b81523060048201528160248201528160448201528160648201528160848201528160a48201528160c4820152818160e4818360018060a01b0388165af180156105fe5761060d575b506003546002546001600160a01b0384163b156106095760405163282478df60e01b815260048101929092526024820181905260448201528181606481836001600160a01b0388165af180156105fe576105e6575b5050600435610164019061042a82611625565b6040519061043782611425565b3382526001600160a01b0383166020830190815290151560408301908152909161046560246004350161155f565b63ffffffff1686526004602081905260408720915182546001600160a01b039182166001600160a01b0319909116178355935160019092018054935160ff60a01b90151560a01b16929094166001600160a81b031990931692909217179091556104d290803501806115b3565b91909260043561010401600435600401906104ec916115b3565b926104fb60246004350161155f565b61050e60048035610124810191016115b3565b909261052360048035610144810191016115b3565b95909661052f90611625565b976040519a8b9a610140808d528c019061054892611604565b908a820360208c015261055a92611604565b63ffffffff90931660408901523360608901526001600160a01b0316608088015260846004359081013560a089015260a4013560c088015286820360e08801526105a392611604565b908482036101008601526105b692611604565b901515610120830152037f60959c5b991214a9f145caa42f648174a46bd41e2f7f92d206d2b2d07e8e26f591a180f35b6105ef90611456565b6105fa578138610417565b5080fd5b6040513d84823e3d90fd5b8280fd5b61061690611456565b6105fa5781386103c2565b6001600160a01b0381163b156105fa5760405163debe2b0d60e01b815260048082018490523560a40135602482015282908181604481836001600160a01b0388165af180156105fe57610676575b505061035e565b61067f90611456565b6105fa57813861066f565b61069390611456565b6105fa578138610350565b8680fd5b6106c4915060203d6020116106ca575b6106bc8183611484565b8101906115e5565b3861028d565b503d6106b2565b8380fd5b503461017f57602036600319011261017f57604060609163ffffffff6106f9611412565b16815260046020522060ff60018060a01b03600181845416930154906040519384528116602084015260a01c1615156040820152f35b503461017f576020806003193601126105fa5763ffffffff61074f611412565b16825260048152604082206040519161076783611425565b6001808060a01b039283815416855201549160ff81841693848487015260a01c1615156040850152823193600a8504936007850294808604600714901517156108d8576040516313aedd4b60e31b81528791908581600481855afa9081156108985783916108bb575b50813b15610609578460648492836040519586948593636ce5768960e11b8552169c8d600485015230602485015260448401525af180156105fe576108a3575b505051169280610828575050610825916118e2565b80f35b60405163a9059cbb60e01b81526001600160a01b0390941660048501526024840192909252919082908290818681604481015b03925af180156108985761086e57505080f35b8161088d92903d10610891575b6108858183611484565b810190611868565b5080f35b503d61087b565b6040513d85823e3d90fd5b6108ac90611456565b6108b7578538610810565b8580fd5b6108d29150863d88116106ca576106bc8183611484565b386107d0565b634e487b7160e01b87526011600452602487fd5b50606036600319011261017f57806004356024359060443563ffffffff8116809103610b2d578084526004602090815260408520546001600160a01b0391906109389083161515611672565b85928087526004825282600160408920015416926040516313aedd4b60e31b81528381600481885afa908115610b22578991610b05575b506040516310e5697360e01b8152928484600481895afa938415610afa578a94610ac7575b508952600484526040892060ff600182015460a01c1615610abc575b5016908115610a70576040516323b872dd60e01b81523360048201523060248201526044810191909152908290829060649082908b905af18015610a6557610a47575b5050803b15610a4357610a20938580946040519687958694859363d813cc1960e01b855260048501611880565b03925af180156105fe57610a3357505080f35b610a3c90611456565b61017f5780f35b8480fd5b81610a5d92903d10610891576108858183611484565b5038806109f3565b6040513d89823e3d90fd5b50505090919392813b156106d157610a9f946040519586948593849363d813cc1960e01b855260048501611880565b039134905af180156105fe57610ab3575080f35b61082590611456565b5482169550386109b0565b9093508481813d8311610af3575b610adf8183611484565b81010312610aef57519238610994565b8980fd5b503d610ad5565b6040513d8c823e3d90fd5b610b1c9150843d86116106ca576106bc8183611484565b3861096f565b6040513d8b823e3d90fd5b505050fd5b503461017f578060031936011261017f57546040516001600160a01b039091168152602090f35b50606036600319011261017f57610b6e611412565b906044356001600160401b0381116105fa57610b8e9036906004016114c0565b63ffffffff8316825260046020526040822054610bb5906001600160a01b03161515611672565b60405192610bc284611469565b6001908185526020368187013760405194610bdc86611469565b8286526020368188013760405192610bf384611469565b8084526020368186013760405196610c0a88611469565b818852602036818a013760405197610c2189611469565b828952875b60208110610f335750908888949392604051610c4181611469565b848152602036818301375063ffffffff87168652600460205260408620938401549360ff8560a01c1615610f19575b50602435610c7d826116b6565b5233610c88846116b6565b526040516313aedd4b60e31b8152916020836004816001600160a01b0389165afa928315610a65578793610ef8575b506040516310e5697360e01b8152926020846004816001600160a01b038a165afa908115610eed5788948592610eb2575b506001600160a01b0316908115610e3e576040516323b872dd60e01b815233600482015230602482015260448101919091529360209185916064918391905af1908115610a65578793610d5892610e1f575b50604051633381899760e01b8152998a978896879560048701611791565b03926001600160a01b03165af1928315610e1457610de0610da77fb13fba94df0630efb53e320abed1d27b8117a85ac9090a9e5cc3edd534b22bd19563ffffffff958891610df2575b506116b6565b51918484168752600460205260018060a01b0360408820541692604051958695168552602085015260a0604085015260a0840190611632565b9060608301523360808301520390a180f35b610e0e91503d808a833e610e068183611484565b8101906116d9565b88610da1565b6040513d86823e3d90fd5b610e379060203d602011610891576108858183611484565b508c610d3a565b5050604051633381899760e01b81529889968795869550610e629460048701611791565b039134906001600160a01b03165af1928315610e1457610de0610da77fb13fba94df0630efb53e320abed1d27b8117a85ac9090a9e5cc3edd534b22bd19563ffffffff958891610df257506116b6565b945090506020843d602011610ee5575b81610ecf60209383611484565b81010312610ee157879351908d610ce8565b8780fd5b3d9150610ec2565b6040513d8a823e3d90fd5b610f1291935060203d6020116106ca576106bc8183611484565b918b610cb7565b546001600160a01b0316610f2c866116b6565b528a610c70565b806060602080938d01015201610c26565b503461017f578060031936011261017f57610f5d611507565b80546001600160a01b03198116825581906001600160a01b03167f8be0079c531659141344cd1fd0a4f28419497f9722a3daafe3b4186f6b6457e08280a380f35b503461017f57608036600319011261017f57610fb8611412565b6024359063ffffffff918281168091036106d1576001600160401b03926044358481116108b757610fed9036906004016114c0565b936064359081116108b7576110069036906004016114c0565b9216928385526020926004845260ff600160408820015460a01c161561113a5761110683926111207f57bff0a79faaabef73281bdf7021d3758548f9c97bfc303a2be1a4c6406a352093600597968a5260048752898660018060a01b036110738160408520541615611570565b8b835260048a5260018a826040818482892001541696600482519461109786611425565b338652808601998a5283860198838a52835252209151166bffffffffffffffffffffffff60a01b8254161781550192511682549160ff60a01b9051151560a01b16916affffffffffffffffffffff60a81b16171790556040519384938a855260a08986015260a0850190611632565b908660408501523360608501528382036080850152611632565b0390a1845252604082209063ffffffff1982541617905580f35b60405162461bcd60e51b815260048101859052602360248201527f6167656e74206973206e6f74206f70656e20666f7220636f6e747269627574696044820152626f6e7360e81b6064820152608490fd5b503461017f5760e036600319011261017f576111a56113b9565b6111ad6113cf565b506001600160a01b0360643581811603610609576084356001600160401b0381116106d1576111e09036906004016113e5565b50503091160361017f5780f35b503461017f57602036600319011261017f57602090604063ffffffff9182611213611412565b16815260058452205416604051908152f35b503461017f576020806003193601126105fa578161124161139e565b611249611507565b6001600160a01b0316806112645750505061082547336118e2565b6040516370a0823160e01b8152306004820152908382602481845afa801561089857849284916112bb575b5060405163a9059cbb60e01b81523360048201526024810191909152928391908290816044810161085b565b8381939492503d83116112e7575b6112d38183611484565b81010312610609575183919061085b61128f565b503d6112c9565b9050346105fa5760803660031901126105fa5761130961139e565b506113126113b9565b5061131b6113cf565b506064356001600160401b0381116106095761133b9036906004016113e5565b50506310e5697360e01b8152602081600481335afa9081156105fe578291611369575b602082604051908152f35b90506020813d8211611396575b8161138360209383611484565b810103126105fa5760209150513861135e565b3d9150611376565b600435906001600160a01b03821682036113b457565b600080fd5b602435906001600160a01b03821682036113b457565b604435906001600160a01b03821682036113b457565b9181601f840112156113b4578235916001600160401b0383116113b457602083818601950101116113b457565b6004359063ffffffff821682036113b457565b606081019081106001600160401b0382111761144057604052565b634e487b7160e01b600052604160045260246000fd5b6001600160401b03811161144057604052565b604081019081106001600160401b0382111761144057604052565b90601f801991011681019081106001600160401b0382111761144057604052565b6001600160401b03811161144057601f01601f191660200190565b81601f820112156113b4578035906114d7826114a5565b926114e56040519485611484565b828452602083830101116113b457816000926020809301838601378301015290565b6000546001600160a01b0316330361151b57565b606460405162461bcd60e51b815260206004820152602060248201527f4f776e61626c653a2063616c6c6572206973206e6f7420746865206f776e65726044820152fd5b3563ffffffff811681036113b45790565b1561157757565b60405162461bcd60e51b81526020600482015260146024820152736167656e7420616c72656164792065786973747360601b6044820152606490fd5b903590601e19813603018212156113b457018035906001600160401b0382116113b4576020019181360383136113b457565b908160209103126113b457516001600160a01b03811681036113b45790565b908060209392818452848401376000828201840152601f01601f1916010190565b3580151581036113b45790565b919082519283825260005b84811061165e575050826000602080949584010152601f8019910116010190565b60208183018101518483018201520161163d565b1561167957565b60405162461bcd60e51b81526020600482015260156024820152746167656e7420646f6573206e6f742065786973747360581b6044820152606490fd5b8051156116c35760200190565b634e487b7160e01b600052603260045260246000fd5b9060209081838203126113b45782516001600160401b03938482116113b4570181601f820112156113b4578051938411611440578360051b906040519461172285840187611484565b855283808601928201019283116113b4578301905b828210611745575050505090565b81518152908301908301611737565b90815180825260208080930193019160005b828110611774575050505090565b83516001600160a01b031685529381019392810192600101611766565b939192909260a085019060a08652845180925260c086019160208096019060005b878282106118545750505050916117d7826117f39594886117e59503888a0152611754565b908682036040880152611754565b908482036060860152611754565b9160808184039101528251908183528083019281808460051b8301019501936000915b8483106118265750505050505090565b9091929394958480611844600193601f198682030187528a51611632565b9801930193019194939290611816565b8351865294850194909201916001016117b2565b908160209103126113b4575180151581036113b45790565b9193929082526020938483015260018060a01b03166040820152608080606083015260605190818184015260005b8281106118d057505060a09293506000838284010152601f8019910116010190565b8181015184820160a0015285016118ae565b81471061199d576000918291829182916001600160a01b03165af13d15611998573d61190d816114a5565b9061191b6040519283611484565b8152600060203d92013e5b1561192d57565b60405162461bcd60e51b815260206004820152603a60248201527f416464726573733a20756e61626c6520746f2073656e642076616c75652c207260448201527f6563697069656e74206d617920686176652072657665727465640000000000006064820152608490fd5b611926565b60405162461bcd60e51b815260206004820152601d60248201527f416464726573733a20696e73756666696369656e742062616c616e63650000006044820152606490fdfea2646970667358221220d48073e1deb1e36e7752d40a2ae8fd44ec156658c65ef95c65fc3f877c692d8a64736f6c63430008140033",
  "devdoc": {
    "kind": "dev",
    "methods": {
      "constructor": {
        "params": {
          "_unlockContract": "The address of the Chainlink oracle Automation Forwarder"
        }
      },
      "owner()": {
        "details": "Returns the address of the current owner."
      },
      "purchaseSubscription(uint32,uint256,string)": {
        "details": "PurchaseSubscription function for an agentID",
        "params": {
          "_agentID": "to subscribe",
          "_value": "array of tokens amount to pay for this purchase >= the current keyPrice - any applicable discount"
        }
      },
      "renounceOwnership()": {
        "details": "Leaves the contract without owner. It will not be possible to call `onlyOwner` functions. Can only be called by the current owner. NOTE: Renouncing ownership will leave the contract without an owner, thereby disabling any functionality that is only available to the owner."
      },
      "transferOwnership(address)": {
        "details": "Transfers ownership of the contract to a new account (`newOwner`). Can only be called by the current owner."
      },
      "withdraw(uint32)": {
        "details": "withdraw function for an agentID",
        "params": {
          "_agentID": "to withdraw money from the lock contract"
        }
      }
    },
    "title": "RocketAI (Decentralized Artificial Intelligence Marketplace)",
    "version": 1
  },
  "userdoc": {
    "kind": "user",
    "methods": {
      "constructor": {
        "notice": "Initializes the contract"
      },
      "withdraw(uint32)": {
        "notice": "We give back to the agent creator 70% of the total income from that agent the platform keeps 30% of that amount"
      }
    },
    "notice": "@dev",
    "version": 1
  },
  "storageLayout": {
    "storage": [
      {
        "astId": 7,
        "contract": "contracts/ChainAgents.sol:ChainAgents",
        "label": "_owner",
        "offset": 0,
        "slot": "0",
        "type": "t_address"
      },
      {
        "astId": 2743,
        "contract": "contracts/ChainAgents.sol:ChainAgents",
        "label": "unlockContract",
        "offset": 0,
        "slot": "1",
        "type": "t_contract(IUnlockV12)2725"
      },
      {
        "astId": 2757,
        "contract": "contracts/ChainAgents.sol:ChainAgents",
        "label": "max",
        "offset": 0,
        "slot": "2",
        "type": "t_uint256"
      },
      {
        "astId": 2760,
        "contract": "contracts/ChainAgents.sol:ChainAgents",
        "label": "month",
        "offset": 0,
        "slot": "3",
        "type": "t_uint256"
      },
      {
        "astId": 2765,
        "contract": "contracts/ChainAgents.sol:ChainAgents",
        "label": "agents",
        "offset": 0,
        "slot": "4",
        "type": "t_mapping(t_uint32,t_struct(AgentStruct)2750_storage)"
      },
      {
        "astId": 2769,
        "contract": "contracts/ChainAgents.sol:ChainAgents",
        "label": "agentVersions",
        "offset": 0,
        "slot": "5",
        "type": "t_mapping(t_uint32,t_uint32)"
      }
    ],
    "types": {
      "t_address": {
        "encoding": "inplace",
        "label": "address",
        "numberOfBytes": "20"
      },
      "t_bool": {
        "encoding": "inplace",
        "label": "bool",
        "numberOfBytes": "1"
      },
      "t_contract(IUnlockV12)2725": {
        "encoding": "inplace",
        "label": "contract IUnlockV12",
        "numberOfBytes": "20"
      },
      "t_mapping(t_uint32,t_struct(AgentStruct)2750_storage)": {
        "encoding": "mapping",
        "key": "t_uint32",
        "label": "mapping(uint32 => struct ChainAgents.AgentStruct)",
        "numberOfBytes": "32",
        "value": "t_struct(AgentStruct)2750_storage"
      },
      "t_mapping(t_uint32,t_uint32)": {
        "encoding": "mapping",
        "key": "t_uint32",
        "label": "mapping(uint32 => uint32)",
        "numberOfBytes": "32",
        "value": "t_uint32"
      },
      "t_struct(AgentStruct)2750_storage": {
        "encoding": "inplace",
        "label": "struct ChainAgents.AgentStruct",
        "members": [
          {
            "astId": 2745,
            "contract": "contracts/ChainAgents.sol:ChainAgents",
            "label": "creator",
            "offset": 0,
            "slot": "0",
            "type": "t_address"
          },
          {
            "astId": 2747,
            "contract": "contracts/ChainAgents.sol:ChainAgents",
            "label": "lockAddress",
            "offset": 0,
            "slot": "1",
            "type": "t_address"
          },
          {
            "astId": 2749,
            "contract": "contracts/ChainAgents.sol:ChainAgents",
            "label": "isOpenForContributions",
            "offset": 20,
            "slot": "1",
            "type": "t_bool"
          }
        ],
        "numberOfBytes": "64"
      },
      "t_uint256": {
        "encoding": "inplace",
        "label": "uint256",
        "numberOfBytes": "32"
      },
      "t_uint32": {
        "encoding": "inplace",
        "label": "uint32",
        "numberOfBytes": "4"
      }
    }
  }
}